{
    "contractName": "DeFi",
    "abi": [
        {
            "inputs": [
                {
                    "internalType": "string",
                    "name": "_name",
                    "type": "string"
                },
                {
                    "internalType": "string",
                    "name": "_symbol",
                    "type": "string"
                }
            ],
            "stateMutability": "nonpayable",
            "type": "constructor"
        },
        {
            "anonymous": false,
            "inputs": [
                {
                    "indexed": true,
                    "internalType": "address",
                    "name": "owner",
                    "type": "address"
                },
                {
                    "indexed": true,
                    "internalType": "address",
                    "name": "spender",
                    "type": "address"
                },
                {
                    "indexed": false,
                    "internalType": "uint256",
                    "name": "value",
                    "type": "uint256"
                }
            ],
            "name": "Approval",
            "type": "event"
        },
        {
            "anonymous": false,
            "inputs": [
                {
                    "indexed": true,
                    "internalType": "address",
                    "name": "from",
                    "type": "address"
                },
                {
                    "indexed": true,
                    "internalType": "address",
                    "name": "to",
                    "type": "address"
                },
                {
                    "indexed": false,
                    "internalType": "uint256",
                    "name": "value",
                    "type": "uint256"
                }
            ],
            "name": "Transfer",
            "type": "event"
        },
        {
            "inputs": [
                {
                    "internalType": "address",
                    "name": "owner",
                    "type": "address"
                },
                {
                    "internalType": "address",
                    "name": "spender",
                    "type": "address"
                }
            ],
            "name": "allowance",
            "outputs": [
                {
                    "internalType": "uint256",
                    "name": "",
                    "type": "uint256"
                }
            ],
            "stateMutability": "view",
            "type": "function"
        },
        {
            "inputs": [
                {
                    "internalType": "address",
                    "name": "spender",
                    "type": "address"
                },
                {
                    "internalType": "uint256",
                    "name": "amount",
                    "type": "uint256"
                }
            ],
            "name": "approve",
            "outputs": [
                {
                    "internalType": "bool",
                    "name": "",
                    "type": "bool"
                }
            ],
            "stateMutability": "nonpayable",
            "type": "function"
        },
        {
            "inputs": [
                {
                    "internalType": "address",
                    "name": "account",
                    "type": "address"
                }
            ],
            "name": "balanceOf",
            "outputs": [
                {
                    "internalType": "uint256",
                    "name": "",
                    "type": "uint256"
                }
            ],
            "stateMutability": "view",
            "type": "function"
        },
        {
            "inputs": [
                {
                    "internalType": "uint256",
                    "name": "_tokenAmnt",
                    "type": "uint256"
                }
            ],
            "name": "borrowETH",
            "outputs": [],
            "stateMutability": "nonpayable",
            "type": "function"
        },
        {
            "inputs": [],
            "name": "decimals",
            "outputs": [
                {
                    "internalType": "uint8",
                    "name": "",
                    "type": "uint8"
                }
            ],
            "stateMutability": "pure",
            "type": "function"
        },
        {
            "inputs": [
                {
                    "internalType": "address",
                    "name": "spender",
                    "type": "address"
                },
                {
                    "internalType": "uint256",
                    "name": "subtractedValue",
                    "type": "uint256"
                }
            ],
            "name": "decreaseAllowance",
            "outputs": [
                {
                    "internalType": "bool",
                    "name": "",
                    "type": "bool"
                }
            ],
            "stateMutability": "nonpayable",
            "type": "function"
        },
        {
            "inputs": [],
            "name": "getBal",
            "outputs": [
                {
                    "internalType": "uint256",
                    "name": "",
                    "type": "uint256"
                }
            ],
            "stateMutability": "view",
            "type": "function"
        },
        {
            "inputs": [
                {
                    "internalType": "address",
                    "name": "spender",
                    "type": "address"
                },
                {
                    "internalType": "uint256",
                    "name": "addedValue",
                    "type": "uint256"
                }
            ],
            "name": "increaseAllowance",
            "outputs": [
                {
                    "internalType": "bool",
                    "name": "",
                    "type": "bool"
                }
            ],
            "stateMutability": "nonpayable",
            "type": "function"
        },
        {
            "inputs": [],
            "name": "lendETH",
            "outputs": [],
            "stateMutability": "payable",
            "type": "function"
        },
        {
            "inputs": [
                {
                    "internalType": "uint256",
                    "name": "_amount",
                    "type": "uint256"
                }
            ],
            "name": "mint",
            "outputs": [],
            "stateMutability": "nonpayable",
            "type": "function"
        },
        {
            "inputs": [],
            "name": "name",
            "outputs": [
                {
                    "internalType": "string",
                    "name": "",
                    "type": "string"
                }
            ],
            "stateMutability": "view",
            "type": "function"
        },
        {
            "inputs": [],
            "name": "symbol",
            "outputs": [
                {
                    "internalType": "string",
                    "name": "",
                    "type": "string"
                }
            ],
            "stateMutability": "view",
            "type": "function"
        },
        {
            "inputs": [],
            "name": "totalSupply",
            "outputs": [
                {
                    "internalType": "uint256",
                    "name": "",
                    "type": "uint256"
                }
            ],
            "stateMutability": "view",
            "type": "function"
        },
        {
            "inputs": [
                {
                    "internalType": "address",
                    "name": "to",
                    "type": "address"
                },
                {
                    "internalType": "uint256",
                    "name": "amount",
                    "type": "uint256"
                }
            ],
            "name": "transfer",
            "outputs": [
                {
                    "internalType": "bool",
                    "name": "",
                    "type": "bool"
                }
            ],
            "stateMutability": "nonpayable",
            "type": "function"
        },
        {
            "inputs": [
                {
                    "internalType": "address",
                    "name": "from",
                    "type": "address"
                },
                {
                    "internalType": "address",
                    "name": "to",
                    "type": "address"
                },
                {
                    "internalType": "uint256",
                    "name": "amount",
                    "type": "uint256"
                }
            ],
            "name": "transferFrom",
            "outputs": [
                {
                    "internalType": "bool",
                    "name": "",
                    "type": "bool"
                }
            ],
            "stateMutability": "nonpayable",
            "type": "function"
        }
    ],
    "bytecode": "60806040523480156200001157600080fd5b5060405162000f7338038062000f73833981016040819052620000349162000142565b8181818160036200004683826200023b565b5060046200005582826200023b565b5050600580546001600160a01b0319163317905550620003079350505050565b634e487b7160e01b600052604160045260246000fd5b600082601f8301126200009d57600080fd5b81516001600160401b0380821115620000ba57620000ba62000075565b604051601f8301601f19908116603f01168101908282118183101715620000e557620000e562000075565b816040528381526020925086838588010111156200010257600080fd5b600091505b8382101562000126578582018301518183018401529082019062000107565b83821115620001385760008385830101525b9695505050505050565b600080604083850312156200015657600080fd5b82516001600160401b03808211156200016e57600080fd5b6200017c868387016200008b565b935060208501519150808211156200019357600080fd5b50620001a2858286016200008b565b9150509250929050565b600181811c90821680620001c157607f821691505b602082108103620001e257634e487b7160e01b600052602260045260246000fd5b50919050565b601f8211156200023657600081815260208120601f850160051c81016020861015620002115750805b601f850160051c820191505b8181101562000232578281556001016200021d565b5050505b505050565b81516001600160401b0381111562000257576200025762000075565b6200026f81620002688454620001ac565b84620001e8565b602080601f831160018114620002a757600084156200028e5750858301515b600019600386901b1c1916600185901b17855562000232565b600085815260208120601f198616915b82811015620002d857888601518255948401946001909101908401620002b7565b5085821015620002f75787850151600019600388901b60f8161c191681555b5050505050600190811b01905550565b610c5c80620003176000396000f3fe6080604052600436106100e85760003560e01c806370a082311161008a578063a457c2d711610059578063a457c2d714610263578063a9059cbb14610283578063d16d3df1146102a3578063dd62ed3e146102ab57600080fd5b806370a08231146101d65780637b2af6251461020c57806395d89b411461022e578063a0712d681461024357600080fd5b806323b872dd116100c657806323b872dd1461016757806325caa26214610187578063313ce5671461019a57806339509351146101b657600080fd5b806306fdde03146100ed578063095ea7b31461011857806318160ddd14610148575b600080fd5b3480156100f957600080fd5b506101026102cb565b60405161010f9190610a1c565b60405180910390f35b34801561012457600080fd5b50610138610133366004610a8d565b61035d565b604051901515815260200161010f565b34801561015457600080fd5b506002545b60405190815260200161010f565b34801561017357600080fd5b50610138610182366004610ab7565b610375565b34801561019357600080fd5b5047610159565b3480156101a657600080fd5b506040516012815260200161010f565b3480156101c257600080fd5b506101386101d1366004610a8d565b610399565b3480156101e257600080fd5b506101596101f1366004610af3565b6001600160a01b031660009081526020819052604090205490565b34801561021857600080fd5b5061022c610227366004610b15565b6103bb565b005b34801561023a57600080fd5b506101026104cd565b34801561024f57600080fd5b5061022c61025e366004610b15565b6104dc565b34801561026f57600080fd5b5061013861027e366004610a8d565b6104e9565b34801561028f57600080fd5b5061013861029e366004610a8d565b610564565b61022c610572565b3480156102b757600080fd5b506101596102c6366004610b2e565b6105f6565b6060600380546102da90610b61565b80601f016020809104026020016040519081016040528092919081815260200182805461030690610b61565b80156103535780601f1061032857610100808354040283529160200191610353565b820191906000526020600020905b81548152906001019060200180831161033657829003601f168201915b5050505050905090565b60003361036b818585610621565b5060019392505050565b600033610383858285610745565b61038e8585856107b9565b506001949350505050565b60003361036b8185856103ac83836105f6565b6103b69190610bb1565b610621565b3360009081526020819052604090205481908111156104215760405162461bcd60e51b815260206004820152601a60248201527f546f6b656e20616d6f756e74206c657373207468616e2031303000000000000060448201526064015b60405180910390fd5b61042c606482610bdf565b156104795760405162461bcd60e51b815260206004820181905260248201527f546f6b656e206d75737420626520696e206d756c7469706c65206f66203130306044820152606401610418565b6104833083610564565b50600061049783662386f26fc10000610bf3565b604051909150339082156108fc029083906000818181858888f193505050501580156104c7573d6000803e3d6000fd5b50505050565b6060600480546102da90610b61565b6104e6338261095d565b50565b600033816104f782866105f6565b9050838110156105575760405162461bcd60e51b815260206004820152602560248201527f45524332303a2064656372656173656420616c6c6f77616e63652062656c6f77604482015264207a65726f60d81b6064820152608401610418565b61038e8286868403610621565b60003361036b8185856107b9565b670de0b6b3a76400003410156105d85760405162461bcd60e51b815260206004820152602560248201527f4d696e696d756d206c656e6420616d6f756e742073686f756c6420626520312060448201526432ba3432b960d91b6064820152608401610418565b60006105eb662386f26fc1000034610c12565b90506104e6816104dc565b6001600160a01b03918216600090815260016020908152604080832093909416825291909152205490565b6001600160a01b0383166106835760405162461bcd60e51b8152602060048201526024808201527f45524332303a20617070726f76652066726f6d20746865207a65726f206164646044820152637265737360e01b6064820152608401610418565b6001600160a01b0382166106e45760405162461bcd60e51b815260206004820152602260248201527f45524332303a20617070726f766520746f20746865207a65726f206164647265604482015261737360f01b6064820152608401610418565b6001600160a01b0383811660008181526001602090815260408083209487168084529482529182902085905590518481527f8c5be1e5ebec7d5bd14f71427d1e84f3dd0314c0f7b2291e5b200ac8c7c3b925910160405180910390a3505050565b600061075184846105f6565b905060001981146104c757818110156107ac5760405162461bcd60e51b815260206004820152601d60248201527f45524332303a20696e73756666696369656e7420616c6c6f77616e63650000006044820152606401610418565b6104c78484848403610621565b6001600160a01b03831661081d5760405162461bcd60e51b815260206004820152602560248201527f45524332303a207472616e736665722066726f6d20746865207a65726f206164604482015264647265737360d81b6064820152608401610418565b6001600160a01b03821661087f5760405162461bcd60e51b815260206004820152602360248201527f45524332303a207472616e7366657220746f20746865207a65726f206164647260448201526265737360e81b6064820152608401610418565b6001600160a01b038316600090815260208190526040902054818110156108f75760405162461bcd60e51b815260206004820152602660248201527f45524332303a207472616e7366657220616d6f756e7420657863656564732062604482015265616c616e636560d01b6064820152608401610418565b6001600160a01b03848116600081815260208181526040808320878703905593871680835291849020805487019055925185815290927fddf252ad1be2c89b69c2b068fc378daa952ba7f163c4a11628f55a4df523b3ef910160405180910390a36104c7565b6001600160a01b0382166109b35760405162461bcd60e51b815260206004820152601f60248201527f45524332303a206d696e7420746f20746865207a65726f2061646472657373006044820152606401610418565b80600260008282546109c59190610bb1565b90915550506001600160a01b038216600081815260208181526040808320805486019055518481527fddf252ad1be2c89b69c2b068fc378daa952ba7f163c4a11628f55a4df523b3ef910160405180910390a35050565b600060208083528351808285015260005b81811015610a4957858101830151858201604001528201610a2d565b81811115610a5b576000604083870101525b50601f01601f1916929092016040019392505050565b80356001600160a01b0381168114610a8857600080fd5b919050565b60008060408385031215610aa057600080fd5b610aa983610a71565b946020939093013593505050565b600080600060608486031215610acc57600080fd5b610ad584610a71565b9250610ae360208501610a71565b9150604084013590509250925092565b600060208284031215610b0557600080fd5b610b0e82610a71565b9392505050565b600060208284031215610b2757600080fd5b5035919050565b60008060408385031215610b4157600080fd5b610b4a83610a71565b9150610b5860208401610a71565b90509250929050565b600181811c90821680610b7557607f821691505b602082108103610b9557634e487b7160e01b600052602260045260246000fd5b50919050565b634e487b7160e01b600052601160045260246000fd5b60008219821115610bc457610bc4610b9b565b500190565b634e487b7160e01b600052601260045260246000fd5b600082610bee57610bee610bc9565b500690565b6000816000190483118215151615610c0d57610c0d610b9b565b500290565b600082610c2157610c21610bc9565b50049056fea264697066735822122094f0ab4bc1c3d1bc11dbc92183a5d30a0ac1cc08fd3b3870d839358430b8b37f64736f6c634300080f0033",
    "sourcePath": "c:/Users/Neosoft/Desktop/NeoSoft/Assignments/DeFi/Lend_Borrow/contracts/DeFi.sol",
    "compiler": {
        "name": "solc",
        "version": "0.8.15+commit.e14f2714"
    },
    "functionHashes": {
        "allowance(address,address)": "dd62ed3e",
        "approve(address,uint256)": "095ea7b3",
        "balanceOf(address)": "70a08231",
        "borrowETH(uint256)": "7b2af625",
        "decimals()": "313ce567",
        "decreaseAllowance(address,uint256)": "a457c2d7",
        "getBal()": "25caa262",
        "increaseAllowance(address,uint256)": "39509351",
        "lendETH()": "d16d3df1",
        "mint(uint256)": "a0712d68",
        "name()": "06fdde03",
        "symbol()": "95d89b41",
        "totalSupply()": "18160ddd",
        "transfer(address,uint256)": "a9059cbb",
        "transferFrom(address,address,uint256)": "23b872dd"
    },
    "gasEstimates": {
        "creation": {
            "codeDepositCost": "632800",
            "executionCost": "infinite",
            "totalCost": "infinite"
        },
        "external": {
            "allowance(address,address)": "infinite",
            "approve(address,uint256)": "24647",
            "balanceOf(address)": "2563",
            "borrowETH(uint256)": "infinite",
            "decimals()": "244",
            "decreaseAllowance(address,uint256)": "26972",
            "getBal()": "239",
            "increaseAllowance(address,uint256)": "27067",
            "lendETH()": "infinite",
            "mint(uint256)": "50784",
            "name()": "infinite",
            "symbol()": "infinite",
            "totalSupply()": "2349",
            "transfer(address,uint256)": "51090",
            "transferFrom(address,address,uint256)": "infinite"
        }
    }
}