{
    "contractName": "exchange",
    "abi": [
        {
            "inputs": [
                {
                    "internalType": "contract NeoToken",
                    "name": "_neoToken",
                    "type": "address"
                },
                {
                    "internalType": "contract LiquidityPool",
                    "name": "_liquidityPool",
                    "type": "address"
                }
            ],
            "stateMutability": "nonpayable",
            "type": "constructor"
        },
        {
            "inputs": [
                {
                    "internalType": "uint256",
                    "name": "_neoAmnt",
                    "type": "uint256"
                }
            ],
            "name": "addLiquidity",
            "outputs": [],
            "stateMutability": "payable",
            "type": "function"
        },
        {
            "inputs": [],
            "name": "pullLiquidity",
            "outputs": [],
            "stateMutability": "nonpayable",
            "type": "function"
        },
        {
            "inputs": [
                {
                    "internalType": "uint256",
                    "name": "_neoAmnt",
                    "type": "uint256"
                }
            ],
            "name": "swapToken",
            "outputs": [],
            "stateMutability": "payable",
            "type": "function"
        }
    ],
    "bytecode": "608060405234801561001057600080fd5b506040516105a53803806105a583398101604081905261002f91610078565b600080546001600160a01b039384166001600160a01b031991821617909155600180549290931691161790556100b2565b6001600160a01b038116811461007557600080fd5b50565b6000806040838503121561008b57600080fd5b825161009681610060565b60208401519092506100a781610060565b809150509250929050565b6104e4806100c16000396000f3fe6080604052600436106100345760003560e01c80634bbf3a7a1461003957806351c6590a1461004e578063f8e35be714610061575b600080fd5b61004c61004736600461042f565b610076565b005b61004c61005c36600461042f565b6101e2565b34801561006d57600080fd5b5061004c6103d0565b60008054604051635c90057360e11b81526001600160a01b039091169063b9200ae6906100ab90339030908790600401610448565b6020604051808303816000875af11580156100ca573d6000803e3d6000fd5b505050506040513d601f19601f820116820180604052508101906100ee919061046c565b9050806100fa57600080fd5b6000546001546040516323b872dd60e01b81526001600160a01b03928316926323b872dd92610133923392909116908790600401610448565b6020604051808303816000875af1158015610152573d6000803e3d6000fd5b505050506040513d601f19601f82011682018060405250810190610176919061046c565b5060015460405163d004f0f760e01b8152336004820152602481018490526001600160a01b039091169063d004f0f79034906044015b6000604051808303818588803b1580156101c557600080fd5b505af11580156101d9573d6000803e3d6000fd5b50505050505050565b600080546040516370a0823160e01b81523360048201526001600160a01b03909116906370a0823190602401602060405180830381865afa15801561022b573d6000803e3d6000fd5b505050506040513d601f19601f8201168201806040525081019061024f9190610495565b116102965760405162461bcd60e51b81526020600482015260136024820152724e6f5f417661696c61626c655f546f6b656e7360681b604482015260640160405180910390fd5b60008054604051635c90057360e11b81526001600160a01b039091169063b9200ae6906102cb90339030908790600401610448565b6020604051808303816000875af11580156102ea573d6000803e3d6000fd5b505050506040513d601f19601f8201168201806040525081019061030e919061046c565b90508061031a57600080fd5b6000546001546040516323b872dd60e01b81526001600160a01b03928316926323b872dd92610353923392909116908790600401610448565b6020604051808303816000875af1158015610372573d6000803e3d6000fd5b505050506040513d601f19601f82011682018060405250810190610396919061046c565b50600154604051636e553f6560e01b8152600481018490523360248201526001600160a01b0390911690636e553f659034906044016101ac565b6001546040516351cff8d960e01b81523360048201526001600160a01b03909116906351cff8d990602401600060405180830381600087803b15801561041557600080fd5b505af1158015610429573d6000803e3d6000fd5b50505050565b60006020828403121561044157600080fd5b5035919050565b6001600160a01b039384168152919092166020820152604081019190915260600190565b60006020828403121561047e57600080fd5b8151801515811461048e57600080fd5b9392505050565b6000602082840312156104a757600080fd5b505191905056fea26469706673582212208ec0cc59d726f2573e4bf4362ec7f64a3943976af03b803730d4ed3f8cf682bd64736f6c634300080f0033",
    "sourcePath": "c:/Users/Neosoft/Desktop/NeoSoft/Assignments/DeFi/ExchangeApp/contracts/DEX.sol",
    "compiler": {
        "name": "solc",
        "version": "0.8.15+commit.e14f2714"
    },
    "functionHashes": {
        "addLiquidity(uint256)": "51c6590a",
        "pullLiquidity()": "f8e35be7",
        "swapToken(uint256)": "4bbf3a7a"
    },
    "gasEstimates": {
        "creation": {
            "codeDepositCost": "250400",
            "executionCost": "infinite",
            "totalCost": "infinite"
        },
        "external": {
            "addLiquidity(uint256)": "infinite",
            "pullLiquidity()": "infinite",
            "swapToken(uint256)": "infinite"
        }
    }
}