{
    "contractName": "LiquidityPool",
    "abi": [
        {
            "anonymous": false,
            "inputs": [
                {
                    "indexed": true,
                    "internalType": "address",
                    "name": "_account",
                    "type": "address"
                }
            ],
            "name": "LiquidityAdded",
            "type": "event"
        },
        {
            "anonymous": false,
            "inputs": [
                {
                    "indexed": true,
                    "internalType": "address",
                    "name": "_account",
                    "type": "address"
                }
            ],
            "name": "LiquidityRemoved",
            "type": "event"
        },
        {
            "anonymous": false,
            "inputs": [
                {
                    "indexed": true,
                    "internalType": "address",
                    "name": "previousOwner",
                    "type": "address"
                },
                {
                    "indexed": true,
                    "internalType": "address",
                    "name": "newOwner",
                    "type": "address"
                }
            ],
            "name": "OwnershipTransferred",
            "type": "event"
        },
        {
            "anonymous": false,
            "inputs": [
                {
                    "indexed": true,
                    "internalType": "address",
                    "name": "_account",
                    "type": "address"
                },
                {
                    "indexed": false,
                    "internalType": "uint256",
                    "name": "_ethTraded",
                    "type": "uint256"
                },
                {
                    "indexed": false,
                    "internalType": "uint256",
                    "name": "_neoTraded",
                    "type": "uint256"
                }
            ],
            "name": "TokensTrade",
            "type": "event"
        },
        {
            "inputs": [
                {
                    "internalType": "uint256",
                    "name": "_neoAmnt",
                    "type": "uint256"
                },
                {
                    "internalType": "address",
                    "name": "_account",
                    "type": "address"
                }
            ],
            "name": "deposit",
            "outputs": [],
            "stateMutability": "payable",
            "type": "function"
        },
        {
            "inputs": [],
            "name": "getReserves",
            "outputs": [
                {
                    "internalType": "uint256",
                    "name": "",
                    "type": "uint256"
                },
                {
                    "internalType": "uint256",
                    "name": "",
                    "type": "uint256"
                }
            ],
            "stateMutability": "view",
            "type": "function"
        },
        {
            "inputs": [],
            "name": "owner",
            "outputs": [
                {
                    "internalType": "address",
                    "name": "",
                    "type": "address"
                }
            ],
            "stateMutability": "view",
            "type": "function"
        },
        {
            "inputs": [],
            "name": "renounceOwnership",
            "outputs": [],
            "stateMutability": "nonpayable",
            "type": "function"
        },
        {
            "inputs": [
                {
                    "internalType": "contract LPT",
                    "name": "_lpToken",
                    "type": "address"
                }
            ],
            "name": "setLPTAddress",
            "outputs": [],
            "stateMutability": "nonpayable",
            "type": "function"
        },
        {
            "inputs": [
                {
                    "internalType": "contract NeoToken",
                    "name": "_neoToken",
                    "type": "address"
                }
            ],
            "name": "setNeoTokenAddress",
            "outputs": [],
            "stateMutability": "nonpayable",
            "type": "function"
        },
        {
            "inputs": [
                {
                    "internalType": "address",
                    "name": "_account",
                    "type": "address"
                },
                {
                    "internalType": "uint256",
                    "name": "_neoAmnt",
                    "type": "uint256"
                }
            ],
            "name": "swap",
            "outputs": [],
            "stateMutability": "payable",
            "type": "function"
        },
        {
            "inputs": [
                {
                    "internalType": "address",
                    "name": "newOwner",
                    "type": "address"
                }
            ],
            "name": "transferOwnership",
            "outputs": [],
            "stateMutability": "nonpayable",
            "type": "function"
        },
        {
            "inputs": [
                {
                    "internalType": "address",
                    "name": "_account",
                    "type": "address"
                }
            ],
            "name": "withdraw",
            "outputs": [],
            "stateMutability": "nonpayable",
            "type": "function"
        }
    ],
    "bytecode": "608060405234801561001057600080fd5b5061001a3361001f565b61006f565b600080546001600160a01b038381166001600160a01b0319831681178455604051919092169283917f8be0079c531659141344cd1fd0a4f28419497f9722a3daafe3b4186f6b6457e09190a35050565b610e828061007e6000396000f3fe6080604052600436106100865760003560e01c80638da5cb5b116100595780638da5cb5b14610102578063b3b37f4d1461012a578063d004f0f71461014a578063f2fde38b1461015d578063f63d19c51461017d57600080fd5b80630902f1ac1461008b57806351cff8d9146100b85780636e553f65146100da578063715018a6146100ed575b600080fd5b34801561009757600080fd5b50600354600454604080519283526020830191909152015b60405180910390f35b3480156100c457600080fd5b506100d86100d3366004610cfc565b61019d565b005b6100d86100e8366004610d19565b6104c9565b3480156100f957600080fd5b506100d8610640565b34801561010e57600080fd5b506000546040516001600160a01b0390911681526020016100af565b34801561013657600080fd5b506100d8610145366004610cfc565b610654565b6100d8610158366004610d49565b6106c4565b34801561016957600080fd5b506100d8610178366004610cfc565b610959565b34801561018957600080fd5b506100d8610198366004610cfc565b6109d2565b6001546040516370a0823160e01b81526001600160a01b03838116600483015260009216906370a0823190602401602060405180830381865afa1580156101e8573d6000803e3d6000fd5b505050506040513d601f19601f8201168201806040525081019061020c9190610d75565b9050806000036102595760405162461bcd60e51b81526020600482015260136024820152724e4f5f415641494c41424c455f544f4b454e5360681b60448201526064015b60405180910390fd5b600154604080516318160ddd60e01b815290516000926001600160a01b0316916318160ddd9160048083019260209291908290030181865afa1580156102a3573d6000803e3d6000fd5b505050506040513d601f19601f820116820180604052508101906102c79190610d75565b9050600081836003546102da9190610da4565b6102e49190610dd9565b9050600082846004546102f79190610da4565b6103019190610dd9565b600154604051632770a7eb60e21b81526001600160a01b03888116600483015260248201889052929350911690639dc29fac90604401600060405180830381600087803b15801561035157600080fd5b505af1158015610365573d6000803e3d6000fd5b505050506000856001600160a01b03168360405160006040518083038185875af1925050503d80600081146103b6576040519150601f19603f3d011682016040523d82523d6000602084013e6103bb565b606091505b505060025460405163a9059cbb60e01b81526001600160a01b038981166004830152602482018690529293506000929091169063a9059cbb906044016020604051808303816000875af1158015610416573d6000803e3d6000fd5b505050506040513d601f19601f8201168201806040525081019061043a9190610dfb565b90508180156104465750805b6104845760405162461bcd60e51b815260206004820152600f60248201526e2320a4a622a22faa2920a729a322a960891b6044820152606401610250565b6040516001600160a01b038816907f5dab48db0770e220c3226a459b19d38e7438c27b1b8dac1fab1434686d2319cd90600090a26104c0610a42565b50505050505050565b6001546040516370a0823160e01b81526001600160a01b03838116600483015260009283929116906370a0823190602401602060405180830381865afa158015610517573d6000803e3d6000fd5b505050506040513d601f19601f8201168201806040525081019061053b9190610d75565b90503481156105825760035461057b906105558484610da4565b61055f9190610dd9565b60045461056c8589610da4565b6105769190610dd9565b610ab7565b9250610597565b61059461058f8683610da4565b610acf565b92505b6001546040516340c10f1960e01b81526001600160a01b03868116600483015260248201869052909116906340c10f1990604401600060405180830381600087803b1580156105e557600080fd5b505af11580156105f9573d6000803e3d6000fd5b50506040516001600160a01b03871692507f88bbeecffcce070d5609ad08df49df93f0d53002ef3544dd5287e6b621eaff6f9150600090a2610639610a42565b5050505050565b610648610c3d565b6106526000610c97565b565b61065c610c3d565b6002546001600160a01b0316156106a25760405162461bcd60e51b815260206004820152600a60248201526957524954455f4f4e434560b01b6044820152606401610250565b600280546001600160a01b0319166001600160a01b0392909216919091179055565b60006004546003546106d69190610da4565b9050600034600003610861576002546040516370a0823160e01b81523060048201526000916001600160a01b0316906370a0823190602401602060405180830381865afa15801561072b573d6000803e3d6000fd5b505050506040513d601f19601f8201168201806040525081019061074f9190610d75565b90506000846004546107619190610e1d565b90508181146107a55760405162461bcd60e51b815260206004820152601060248201526f2234b22fa737ba2faa3930b739b332b960811b6044820152606401610250565b60006107b18386610dd9565b9050806003546107c19190610e35565b93506000876001600160a01b03168560405160006040518083038185875af1925050503d8060008114610810576040519150601f19603f3d011682016040523d82523d6000602084013e610815565b606091505b50509050806108585760405162461bcd60e51b815260206004820152600f60248201526e151c985b9cd9995c97d1985a5b1959608a1b6044820152606401610250565b50505050610907565b6000346003546108719190610e1d565b61087b9084610dd9565b90508060045461088b9190610e35565b60025460405163a9059cbb60e01b81526001600160a01b0388811660048301526024820184905292945091169063a9059cbb906044016020604051808303816000875af11580156108e0573d6000803e3d6000fd5b505050506040513d601f19601f820116820180604052508101906109049190610dfb565b50505b60408051348152602081018590526001600160a01b038616917f2469578c5f845e65ec70a1e34edac9c8b7b40da4d515021974ada1cd72f2472e910160405180910390a2610953610a42565b50505050565b610961610c3d565b6001600160a01b0381166109c65760405162461bcd60e51b815260206004820152602660248201527f4f776e61626c653a206e6577206f776e657220697320746865207a65726f206160448201526564647265737360d01b6064820152608401610250565b6109cf81610c97565b50565b6109da610c3d565b6001546001600160a01b031615610a205760405162461bcd60e51b815260206004820152600a60248201526957524954455f4f4e434560b01b6044820152606401610250565b600180546001600160a01b0319166001600160a01b0392909216919091179055565b476003556002546040516370a0823160e01b81523060048201526001600160a01b03909116906370a0823190602401602060405180830381865afa158015610a8e573d6000803e3d6000fd5b505050506040513d601f19601f82011682018060405250810190610ab29190610d75565b600455565b6000818310610ac65781610ac8565b825b9392505050565b600081600003610ae157506000919050565b600182608081901c15610af95760409190911b9060801c5b604081901c15610b0e5760209190911b9060401c5b602081901c15610b235760109190911b9060201c5b601081901c15610b385760089190911b9060101c5b600881901c15610b4d5760049190911b9060081c5b600481901c15610b625760029190911b9060041c5b600281901c15610b7457600182901b91505b6001828581610b8557610b85610dc3565b048301901c91506001828581610b9d57610b9d610dc3565b048301901c91506001828581610bb557610bb5610dc3565b048301901c91506001828581610bcd57610bcd610dc3565b048301901c91506001828581610be557610be5610dc3565b048301901c91506001828581610bfd57610bfd610dc3565b048301901c91506001828581610c1557610c15610dc3565b048301901c9150610c3582838681610c2f57610c2f610dc3565b04610ab7565b949350505050565b6000546001600160a01b031633146106525760405162461bcd60e51b815260206004820181905260248201527f4f776e61626c653a2063616c6c6572206973206e6f7420746865206f776e65726044820152606401610250565b600080546001600160a01b038381166001600160a01b0319831681178455604051919092169283917f8be0079c531659141344cd1fd0a4f28419497f9722a3daafe3b4186f6b6457e09190a35050565b6001600160a01b03811681146109cf57600080fd5b600060208284031215610d0e57600080fd5b8135610ac881610ce7565b60008060408385031215610d2c57600080fd5b823591506020830135610d3e81610ce7565b809150509250929050565b60008060408385031215610d5c57600080fd5b8235610d6781610ce7565b946020939093013593505050565b600060208284031215610d8757600080fd5b5051919050565b634e487b7160e01b600052601160045260246000fd5b6000816000190483118215151615610dbe57610dbe610d8e565b500290565b634e487b7160e01b600052601260045260246000fd5b600082610df657634e487b7160e01b600052601260045260246000fd5b500490565b600060208284031215610e0d57600080fd5b81518015158114610ac857600080fd5b60008219821115610e3057610e30610d8e565b500190565b600082821015610e4757610e47610d8e565b50039056fea2646970667358221220047dbd82e70c97b1d039f5e20648da475daf37109a6da23635161d78de8419b364736f6c634300080f0033",
    "sourcePath": "c:/Users/Neosoft/Desktop/NeoSoft/Assignments/DeFi/ExchangeApp/contracts/LiquidityPool.sol",
    "compiler": {
        "name": "solc",
        "version": "0.8.15+commit.e14f2714"
    },
    "functionHashes": {
        "deposit(uint256,address)": "6e553f65",
        "getReserves()": "0902f1ac",
        "owner()": "8da5cb5b",
        "renounceOwnership()": "715018a6",
        "setLPTAddress(address)": "f63d19c5",
        "setNeoTokenAddress(address)": "b3b37f4d",
        "swap(address,uint256)": "d004f0f7",
        "transferOwnership(address)": "f2fde38b",
        "withdraw(address)": "51cff8d9"
    },
    "gasEstimates": {
        "creation": {
            "codeDepositCost": "742800",
            "executionCost": "26620",
            "totalCost": "769420"
        },
        "external": {
            "deposit(uint256,address)": "infinite",
            "getReserves()": "4397",
            "owner()": "2301",
            "renounceOwnership()": "infinite",
            "setLPTAddress(address)": "28955",
            "setNeoTokenAddress(address)": "28889",
            "swap(address,uint256)": "infinite",
            "transferOwnership(address)": "infinite",
            "withdraw(address)": "infinite"
        },
        "internal": {
            "_update()": "infinite"
        }
    }
}