{
    "contractName": "NeoToken",
    "abi": [
        {
            "inputs": [
                {
                    "internalType": "string",
                    "name": "_name",
                    "type": "string"
                },
                {
                    "internalType": "string",
                    "name": "_symbol",
                    "type": "string"
                }
            ],
            "stateMutability": "nonpayable",
            "type": "constructor"
        },
        {
            "anonymous": false,
            "inputs": [
                {
                    "indexed": true,
                    "internalType": "address",
                    "name": "owner",
                    "type": "address"
                },
                {
                    "indexed": true,
                    "internalType": "address",
                    "name": "spender",
                    "type": "address"
                },
                {
                    "indexed": false,
                    "internalType": "uint256",
                    "name": "value",
                    "type": "uint256"
                }
            ],
            "name": "Approval",
            "type": "event"
        },
        {
            "anonymous": false,
            "inputs": [
                {
                    "indexed": true,
                    "internalType": "address",
                    "name": "from",
                    "type": "address"
                },
                {
                    "indexed": true,
                    "internalType": "address",
                    "name": "to",
                    "type": "address"
                },
                {
                    "indexed": false,
                    "internalType": "uint256",
                    "name": "value",
                    "type": "uint256"
                }
            ],
            "name": "Transfer",
            "type": "event"
        },
        {
            "inputs": [],
            "name": "DexRouter",
            "outputs": [
                {
                    "internalType": "address",
                    "name": "",
                    "type": "address"
                }
            ],
            "stateMutability": "view",
            "type": "function"
        },
        {
            "inputs": [
                {
                    "internalType": "address",
                    "name": "owner",
                    "type": "address"
                },
                {
                    "internalType": "address",
                    "name": "spender",
                    "type": "address"
                }
            ],
            "name": "allowance",
            "outputs": [
                {
                    "internalType": "uint256",
                    "name": "",
                    "type": "uint256"
                }
            ],
            "stateMutability": "view",
            "type": "function"
        },
        {
            "inputs": [
                {
                    "internalType": "address",
                    "name": "spender",
                    "type": "address"
                },
                {
                    "internalType": "uint256",
                    "name": "amount",
                    "type": "uint256"
                }
            ],
            "name": "approve",
            "outputs": [
                {
                    "internalType": "bool",
                    "name": "",
                    "type": "bool"
                }
            ],
            "stateMutability": "nonpayable",
            "type": "function"
        },
        {
            "inputs": [
                {
                    "internalType": "address",
                    "name": "account",
                    "type": "address"
                }
            ],
            "name": "balanceOf",
            "outputs": [
                {
                    "internalType": "uint256",
                    "name": "",
                    "type": "uint256"
                }
            ],
            "stateMutability": "view",
            "type": "function"
        },
        {
            "inputs": [],
            "name": "decimals",
            "outputs": [
                {
                    "internalType": "uint8",
                    "name": "",
                    "type": "uint8"
                }
            ],
            "stateMutability": "pure",
            "type": "function"
        },
        {
            "inputs": [
                {
                    "internalType": "address",
                    "name": "spender",
                    "type": "address"
                },
                {
                    "internalType": "uint256",
                    "name": "subtractedValue",
                    "type": "uint256"
                }
            ],
            "name": "decreaseAllowance",
            "outputs": [
                {
                    "internalType": "bool",
                    "name": "",
                    "type": "bool"
                }
            ],
            "stateMutability": "nonpayable",
            "type": "function"
        },
        {
            "inputs": [
                {
                    "internalType": "address",
                    "name": "_owner",
                    "type": "address"
                },
                {
                    "internalType": "address",
                    "name": "_spender",
                    "type": "address"
                },
                {
                    "internalType": "uint256",
                    "name": "_amount",
                    "type": "uint256"
                }
            ],
            "name": "incraseRouterAllownace",
            "outputs": [
                {
                    "internalType": "bool",
                    "name": "",
                    "type": "bool"
                }
            ],
            "stateMutability": "nonpayable",
            "type": "function"
        },
        {
            "inputs": [
                {
                    "internalType": "address",
                    "name": "spender",
                    "type": "address"
                },
                {
                    "internalType": "uint256",
                    "name": "addedValue",
                    "type": "uint256"
                }
            ],
            "name": "increaseAllowance",
            "outputs": [
                {
                    "internalType": "bool",
                    "name": "",
                    "type": "bool"
                }
            ],
            "stateMutability": "nonpayable",
            "type": "function"
        },
        {
            "inputs": [],
            "name": "name",
            "outputs": [
                {
                    "internalType": "string",
                    "name": "",
                    "type": "string"
                }
            ],
            "stateMutability": "view",
            "type": "function"
        },
        {
            "inputs": [
                {
                    "internalType": "address",
                    "name": "_DexRouter",
                    "type": "address"
                }
            ],
            "name": "setRouter",
            "outputs": [],
            "stateMutability": "nonpayable",
            "type": "function"
        },
        {
            "inputs": [],
            "name": "symbol",
            "outputs": [
                {
                    "internalType": "string",
                    "name": "",
                    "type": "string"
                }
            ],
            "stateMutability": "view",
            "type": "function"
        },
        {
            "inputs": [],
            "name": "totalSupply",
            "outputs": [
                {
                    "internalType": "uint256",
                    "name": "",
                    "type": "uint256"
                }
            ],
            "stateMutability": "view",
            "type": "function"
        },
        {
            "inputs": [
                {
                    "internalType": "address",
                    "name": "to",
                    "type": "address"
                },
                {
                    "internalType": "uint256",
                    "name": "amount",
                    "type": "uint256"
                }
            ],
            "name": "transfer",
            "outputs": [
                {
                    "internalType": "bool",
                    "name": "",
                    "type": "bool"
                }
            ],
            "stateMutability": "nonpayable",
            "type": "function"
        },
        {
            "inputs": [
                {
                    "internalType": "address",
                    "name": "from",
                    "type": "address"
                },
                {
                    "internalType": "address",
                    "name": "to",
                    "type": "address"
                },
                {
                    "internalType": "uint256",
                    "name": "amount",
                    "type": "uint256"
                }
            ],
            "name": "transferFrom",
            "outputs": [
                {
                    "internalType": "bool",
                    "name": "",
                    "type": "bool"
                }
            ],
            "stateMutability": "nonpayable",
            "type": "function"
        }
    ],
    "bytecode": "60806040523480156200001157600080fd5b5060405162000e0d38038062000e0d83398101604081905262000034916200021a565b8181600362000044838262000312565b50600462000053828262000312565b5050600680546001600160a01b031916339081179091556200007a9150620186a062000082565b505062000405565b6001600160a01b038216620000dd5760405162461bcd60e51b815260206004820152601f60248201527f45524332303a206d696e7420746f20746865207a65726f206164647265737300604482015260640160405180910390fd5b8060026000828254620000f19190620003de565b90915550506001600160a01b038216600081815260208181526040808320805486019055518481527fddf252ad1be2c89b69c2b068fc378daa952ba7f163c4a11628f55a4df523b3ef910160405180910390a35050565b505050565b634e487b7160e01b600052604160045260246000fd5b600082601f8301126200017557600080fd5b81516001600160401b03808211156200019257620001926200014d565b604051601f8301601f19908116603f01168101908282118183101715620001bd57620001bd6200014d565b81604052838152602092508683858801011115620001da57600080fd5b600091505b83821015620001fe5785820183015181830184015290820190620001df565b83821115620002105760008385830101525b9695505050505050565b600080604083850312156200022e57600080fd5b82516001600160401b03808211156200024657600080fd5b620002548683870162000163565b935060208501519150808211156200026b57600080fd5b506200027a8582860162000163565b9150509250929050565b600181811c908216806200029957607f821691505b602082108103620002ba57634e487b7160e01b600052602260045260246000fd5b50919050565b601f8211156200014857600081815260208120601f850160051c81016020861015620002e95750805b601f850160051c820191505b818110156200030a57828155600101620002f5565b505050505050565b81516001600160401b038111156200032e576200032e6200014d565b62000346816200033f845462000284565b84620002c0565b602080601f8311600181146200037e5760008415620003655750858301515b600019600386901b1c1916600185901b1785556200030a565b600085815260208120601f198616915b82811015620003af578886015182559484019460019091019084016200038e565b5085821015620003ce5787850151600019600388901b60f8161c191681555b5050505050600190811b01905550565b600082198211156200040057634e487b7160e01b600052601160045260246000fd5b500190565b6109f880620004156000396000f3fe608060405234801561001057600080fd5b50600436106100ea5760003560e01c8063736ce0d41161008c578063a9059cbb11610066578063a9059cbb146101e6578063b9200ae6146101f9578063c0d786551461020c578063dd62ed3e1461022157600080fd5b8063736ce0d4146101a057806395d89b41146101cb578063a457c2d7146101d357600080fd5b806323b872dd116100c857806323b872dd14610142578063313ce56714610155578063395093511461016457806370a082311461017757600080fd5b806306fdde03146100ef578063095ea7b31461010d57806318160ddd14610130575b600080fd5b6100f7610234565b6040516101049190610836565b60405180910390f35b61012061011b3660046108a7565b6102c6565b6040519015158152602001610104565b6002545b604051908152602001610104565b6101206101503660046108d1565b6102de565b60405160128152602001610104565b6101206101723660046108a7565b610302565b61013461018536600461090d565b6001600160a01b031660009081526020819052604090205490565b6005546101b3906001600160a01b031681565b6040516001600160a01b039091168152602001610104565b6100f7610324565b6101206101e13660046108a7565b610333565b6101206101f43660046108a7565b6103b3565b6101206102073660046108d1565b6103c1565b61021f61021a36600461090d565b61041b565b005b61013461022f36600461092f565b6104c9565b60606003805461024390610962565b80601f016020809104026020016040519081016040528092919081815260200182805461026f90610962565b80156102bc5780601f10610291576101008083540402835291602001916102bc565b820191906000526020600020905b81548152906001019060200180831161029f57829003601f168201915b5050505050905090565b6000336102d48185856104f4565b5060019392505050565b6000336102ec858285610618565b6102f7858585610692565b506001949350505050565b6000336102d481858561031583836104c9565b61031f919061099c565b6104f4565b60606004805461024390610962565b6000338161034182866104c9565b9050838110156103a65760405162461bcd60e51b815260206004820152602560248201527f45524332303a2064656372656173656420616c6c6f77616e63652062656c6f77604482015264207a65726f60d81b60648201526084015b60405180910390fd5b6102f782868684036104f4565b6000336102d4818585610692565b6005546000906001600160a01b0316331461040b5760405162461bcd60e51b815260206004820152600a6024820152692737ba102937baba32b960b11b604482015260640161039d565b6102d484848461031533306104c9565b6006546001600160a01b031633146104615760405162461bcd60e51b81526020600482015260096024820152682737ba1027bbb732b960b91b604482015260640161039d565b6005546001600160a01b0316156104a75760405162461bcd60e51b815260206004820152600a6024820152695772697465204f6e636560b01b604482015260640161039d565b600580546001600160a01b0319166001600160a01b0392909216919091179055565b6001600160a01b03918216600090815260016020908152604080832093909416825291909152205490565b6001600160a01b0383166105565760405162461bcd60e51b8152602060048201526024808201527f45524332303a20617070726f76652066726f6d20746865207a65726f206164646044820152637265737360e01b606482015260840161039d565b6001600160a01b0382166105b75760405162461bcd60e51b815260206004820152602260248201527f45524332303a20617070726f766520746f20746865207a65726f206164647265604482015261737360f01b606482015260840161039d565b6001600160a01b0383811660008181526001602090815260408083209487168084529482529182902085905590518481527f8c5be1e5ebec7d5bd14f71427d1e84f3dd0314c0f7b2291e5b200ac8c7c3b925910160405180910390a3505050565b600061062484846104c9565b9050600019811461068c578181101561067f5760405162461bcd60e51b815260206004820152601d60248201527f45524332303a20696e73756666696369656e7420616c6c6f77616e6365000000604482015260640161039d565b61068c84848484036104f4565b50505050565b6001600160a01b0383166106f65760405162461bcd60e51b815260206004820152602560248201527f45524332303a207472616e736665722066726f6d20746865207a65726f206164604482015264647265737360d81b606482015260840161039d565b6001600160a01b0382166107585760405162461bcd60e51b815260206004820152602360248201527f45524332303a207472616e7366657220746f20746865207a65726f206164647260448201526265737360e81b606482015260840161039d565b6001600160a01b038316600090815260208190526040902054818110156107d05760405162461bcd60e51b815260206004820152602660248201527f45524332303a207472616e7366657220616d6f756e7420657863656564732062604482015265616c616e636560d01b606482015260840161039d565b6001600160a01b03848116600081815260208181526040808320878703905593871680835291849020805487019055925185815290927fddf252ad1be2c89b69c2b068fc378daa952ba7f163c4a11628f55a4df523b3ef910160405180910390a361068c565b600060208083528351808285015260005b8181101561086357858101830151858201604001528201610847565b81811115610875576000604083870101525b50601f01601f1916929092016040019392505050565b80356001600160a01b03811681146108a257600080fd5b919050565b600080604083850312156108ba57600080fd5b6108c38361088b565b946020939093013593505050565b6000806000606084860312156108e657600080fd5b6108ef8461088b565b92506108fd6020850161088b565b9150604084013590509250925092565b60006020828403121561091f57600080fd5b6109288261088b565b9392505050565b6000806040838503121561094257600080fd5b61094b8361088b565b91506109596020840161088b565b90509250929050565b600181811c9082168061097657607f821691505b60208210810361099657634e487b7160e01b600052602260045260246000fd5b50919050565b600082198211156109bd57634e487b7160e01b600052601160045260246000fd5b50019056fea26469706673582212203541befcdd7ede234be89e8fa505c873aff4344ec6c96b9af86fc0ac425e20aa64736f6c634300080f0033",
    "sourcePath": "c:/Users/Neosoft/Desktop/NeoSoft/Assignments/DeFi/ExchangeApp/contracts/NeoToken.sol",
    "compiler": {
        "name": "solc",
        "version": "0.8.15+commit.e14f2714"
    },
    "functionHashes": {
        "DexRouter()": "736ce0d4",
        "allowance(address,address)": "dd62ed3e",
        "approve(address,uint256)": "095ea7b3",
        "balanceOf(address)": "70a08231",
        "decimals()": "313ce567",
        "decreaseAllowance(address,uint256)": "a457c2d7",
        "incraseRouterAllownace(address,address,uint256)": "b9200ae6",
        "increaseAllowance(address,uint256)": "39509351",
        "name()": "06fdde03",
        "setRouter(address)": "c0d78655",
        "symbol()": "95d89b41",
        "totalSupply()": "18160ddd",
        "transfer(address,uint256)": "a9059cbb",
        "transferFrom(address,address,uint256)": "23b872dd"
    },
    "gasEstimates": {
        "creation": {
            "codeDepositCost": "510400",
            "executionCost": "infinite",
            "totalCost": "infinite"
        },
        "external": {
            "DexRouter()": "2360",
            "allowance(address,address)": "infinite",
            "approve(address,uint256)": "24647",
            "balanceOf(address)": "2629",
            "decimals()": "222",
            "decreaseAllowance(address,uint256)": "27017",
            "incraseRouterAllownace(address,address,uint256)": "infinite",
            "increaseAllowance(address,uint256)": "27045",
            "name()": "infinite",
            "setRouter(address)": "28915",
            "symbol()": "infinite",
            "totalSupply()": "2349",
            "transfer(address,uint256)": "51068",
            "transferFrom(address,address,uint256)": "infinite"
        }
    }
}